:100000000C944B010C947C010C947C010C947C01AD
:100010000C947C010C947C010C947C010C947C016C
:100020000C947C010C947C010C947C010C947C015C
:100030000C947C010C947C010C947C010C947C014C
:100040000C947C010C947C010C947C010C947C013C
:100050000C947C010C947C010C947C010C94A605FE
:100060000C947C010C942C040C9462040C947C0180
:100070000C947C010C947C010C947C010C947C010C
:100080000C947C010C947C010C947C010C947C01FC
:100090000C94C3040C94F9040C947C010C947C0122
:1000A0000C947C010C947C010C947C010C947C01DC
:1000B0000C947C010C947C010C947C010C947C01CC
:1000C0000C947C010C947C010C947C010C947C01BC
:1000D0000C947C010C947C010C947C010C947C01AC
:1000E0000C947C010C94B1020C9405070C9423052C
:1000F0000C940E070C94BB020C9401070C94E502BF
:100100000C940A020C94CB020C942D050C94D4068A
:100110000C945F030C94F9020C9430020C94960436
:100120000C9409070C948C040C94FB060C944C0260
:100130000C94E3060C94ED060C94CE060C94130775
:100140000C94DC060C94D7020C9408030C940F0753
:100150000C945A050C94D8060C94F7060C94E006FF
:100160000C94E9060C947F030C94F3060C94600540
:1001700000000A0B02090C0D0E0807030401000021
:10018000000000000000000000000000000000006F
:10019000000000000000000000000000121110002C
:1001A000000000000000000000000000000000004F
:1001B000000000000000010210202008081020406C
:1001C000102040800201020108040201010204081B
:1001D00010204080804020100804020180040201A9
:1001E00080402010080402010804020101020408F2
:1001F00010204080010204081020408005050505FC
:10020000070508080808020202020A0A080804048E
:1002100004040101010101010101030303030303BC
:100220000303040707070C0C0C0C0C0C0C0C02024B
:10023000020206060606060606060B0B0B0B0B0B48
:100240000B0B000020002300260029002C002F00AB
:100250003200000100000301060109010000220034
:10026000250028002B002E00310034000201000080
:10027000050108010B0100002100240027002A00CD
:100280002D003000330001010000040107010A01C4
:100290000A0296042D0511241FBECFEFD1E2DEBF66
:1002A000CDBF00E00CBF12E0A0E0B2E0E0ECFFE068
:1002B00000E00BBF02C007900D92AE34B107D9F732
:1002C00023E0AEE4B2E001C01D92A63AB207E1F726
:1002D00011E0CBE4D1E000E006C021970109802FB6
:1002E000FE010E949F07C834D10780E00807A9F7E4
:1002F0000E9497050C94DE070C940000FC017183AA
:1003000060830895EF92FF920F931F93CF93DF9333
:100310008C01CB01EA01DB01ED91FC910190F081B0
:10032000E02D19958135E9F04CF4843449F18F348E
:1003300069F1CDB7DEB7E6E00C94CF078335D1F095
:100340008A35B9F7E881F981E080F1806AE5F80142
:10035000808191810E94CC01BC01CE01F7011995E9
:10036000E8CFE881F981E080F18061E5D8018D91E5
:100370009C91F0CFE881F981E080F18063E5F6CFD0
:10038000E881F981E080F18064E4F0CFE881F981CF
:10039000E080F1806FE4EACF805880934E0281E0E4
:1003A00080934F0296E0909350028093510290E127
:1003B00090935202909353026135D9F054F464340F
:1003C000B9F06F34D1F08FEF809356028EE492E053
:1003D0000895633549F06A35B1F783E0809354029C
:1003E00082E080935502EFCF93E090935402F9CFCF
:1003F00082E08093540283E0F4CF83E08093540240
:10040000F0CF40E052E069E572E087E592E00E94BB
:10041000820108950F931F9304E310E022E330E07C
:1004200040E350E06EE270E089E592E00E949F02B6
:1004300061E070E087E592E00E947E011F910F91DC
:10044000089580E092E00E94B10289E592E00E9466
:10045000300208950E94210208950E940102089529
:10046000CF93DF93EC0160E08A810E94170760E080
:100470008C810E94170760E08E810E94170760E060
:1004800088850E94170762E072E083E692E00E948E
:100490008D05DF91CF910895CF93DF93EC018A8191
:1004A0000E945307892B81F465E172E083E692E0B4
:1004B0000E948D0568EE73E080E090E00E941506D2
:1004C00083E5DF91CF9108958C810E945307892B9A
:1004D00071F468EE73E080E090E00E94150669E137
:1004E00072E083E692E00E948D0581E5EACF8E817D
:1004F0000E945307892B71F460E272E083E692E078
:100500000E948D0568EE73E080E090E00E94150681
:1005100084E4D7CF88850E945307892B71F466E263
:1005200072E083E692E00E948D0568EE73E080E061
:1005300090E00E9415068AE5C4CF8FE4C2CF0F93E6
:100540001F93FC018FE292E0918380837383628327
:100550005583448337832683118700871F910F912A
:10056000089526E040E855E260E070E080E093E026
:100570000E94CA0308956115710561F0FB010190A5
:100580000020E9F73197AF01461B570B80E093E05D
:100590000E945A050895FC01918D228D892F90E0CB
:1005A000805C9F4F821B91098F7399270895FC01EE
:1005B000918D828D981731F0828DE80FF11D858D18
:1005C00090E008958FEF9FEF0895FC01918D828D4B
:1005D000981761F0A28DAE0FBF2FB11D5D968C9163
:1005E000928D9F5F9F73928F90E008958FEF9FEFA2
:1005F0000895FC01538D448D252F30E0842F90E029
:10060000821B930B541710F0CF960895019708950D
:100610008CE894E0892B49F080E090E0892B29F068
:100620000E948C0481110E94000083E295E0892BD6
:1006300049F080E090E0892B29F00E942305811188
:100640000E94000080E090E0892B49F080E090E07B
:10065000892B29F00E94000081110E94000080E097
:1006600090E0892B49F080E090E0892B29F00E94EE
:10067000000081110E9400000895FC01A48DA80FC4
:10068000B92FB11DA35ABF4F2C91848D90E00196D4
:100690008F739927848FA689B7892C93A089B189F4
:1006A0008C91837080648C93938D848D981306C095
:1006B0000288F389E02D80818F7D80830895CF9318
:1006C000DF93EC01888D8823B9F0AA89BB89E8897A
:1006D000F9898C9185FD03C0808186FD0DC00FB620
:1006E00007FCF7CF8C9185FFF2CF808185FFEDCF9E
:1006F000CE010E943D03E9CFDF91CF910895EF92A3
:10070000FF920F931F93CF93DF93EC0181E0888FCB
:100710009B8D8C8D981318C0E889F989808185FF9D
:1007200013C09FB7F894EE89FF896083E889F9893F
:1007300080818370806480839FBF81E090E0CDB72B
:10074000DEB7E6E00C94CF07F62E0B8D10E00F5FBE
:100750001F4F0F731127E02E8C8D8E110CC00FB61A
:1007600007FCFACFE889F989808185FFF5CFCE01B2
:100770000E943D03F1CFEB8DEC0FFD2FF11DE35AED
:10078000FF4FF0829FB7F8940B8FEA89FB89808135
:100790008062D1CFCF92DF92EF92FF921F93CF93DF
:1007A000DF93EC016A017B01122FE889F98982E06D
:1007B0008083C11481EED806E104F104A1F060E069
:1007C00079E08DE390E0A70196010E947D0721501A
:1007D00031094109510956954795379527952115B6
:1007E00080E1380798F0E889F989108260E874E8B8
:1007F0008EE190E0A70196010E947D07215031090A
:10080000410951095695479537952795EC85FD8502
:100810003083EE85FF852083188EEC89FD89108357
:10082000EA89FB89808180618083EA89FB898081F4
:1008300088608083EA89FB89808180688083EA8977
:10084000FB8980818F7D8083DF91CF911F91FF9005
:10085000EF90DF90CF9008951F920F920FB60F92F6
:1008600011240BB60F922F938F939F93EF93FF93C7
:10087000E0917302F09174028081E0917902F0912D
:100880007A0282FD1DC0908180917C028F5F8F7300
:1008900020917D02821741F0E0917C02F0E0ED5959
:1008A000FD4F958F80937C02FF91EF919F918F91E7
:1008B0002F910F900BBE0F900FBE0F901F901895A9
:1008C0008081F2CF1F920F920FB60F9211240BB6B8
:1008D0000F922F933F934F935F936F937F938F93D9
:1008E0009F93AF93BF93EF93FF9383E692E00E94B1
:1008F0003D03FF91EF91BF91AF919F918F917F91B8
:100900006F915F914F913F912F910F900BBE0F9080
:100910000FBE0F901F90189583E692E00E94CB02C5
:1009200021E0892B09F420E0822F0895E3E6F2E02C
:100930001382128288EE93E0A0E0B0E08483958376
:10094000A683B7838FE392E09183808385EC90E068
:100950009587848784EC90E09787868780EC90E089
:10096000918B808B81EC90E0938B828B82EC90E07A
:10097000958B848B86EC90E0978B868B118E128EF4
:10098000138E148E08951F920F920FB60F9211249A
:100990000BB60F922F938F939F93EF93FF93E0915A
:1009A0001003F09111038081E0911603F091170379
:1009B00082FD1DC09081809119038F5F8F732091FC
:1009C0001A03821741F0E0911903F0E0E050FD4F67
:1009D000958F80931903FF91EF919F918F912F91A4
:1009E0000F900BBE0F900FBE0F901F901895808137
:1009F000F2CF1F920F920FB60F9211240BB60F92E7
:100A00002F933F934F935F936F937F938F939F9316
:100A1000AF93BF93EF93FF9380E093E00E943D0379
:100A2000FF91EF91BF91AF919F918F917F916F91C6
:100A30005F914F913F912F910F900BBE0F900FBE82
:100A40000F901F90189580E093E00E94CB0221E068
:100A5000892B09F420E0822F0895E0E0F3E013826F
:100A6000128288EE93E0A0E0B0E084839583A683B1
:100A7000B7838FE392E0918380838DEC90E095873C
:100A800084878CEC90E09787868788EC90E0918B48
:100A9000808B89EC90E0938B828B8AEC90E0958B35
:100AA000848B8EEC90E0978B868B118E128E138E3A
:100AB000148E0895B0E0A0E0E0E6F5E00C94AF07F6
:100AC0006C017B018B01040F151FEB015E01AE1859
:100AD000BF08C017D10759F06991D601ED91FC917B
:100AE0000190F081E02DC6011995892B79F7C50198
:100AF000CDB7DEB7EAE00C94CB07FB0101900020F4
:100B0000E9F73197AF01461B570BDC01ED91FC91E2
:100B10000280F381E02D199508956115710519F092
:100B20000E947D05089590E080E0089508950E9458
:100B30004E060E9496050E942A02C8E0D3E00E9459
:100B40002D022097E1F30E940803F9CF1F920F9224
:100B50000FB60F9211242F933F938F939F93AF93D0
:100B6000BF9380919E0390919F03A091A003B091A9
:100B7000A10330919D0323E0230F2D3758F50196F3
:100B8000A11DB11D20939D0380939E0390939F030D
:100B9000A093A003B093A1038091A2039091A3031B
:100BA000A091A403B091A5030196A11DB11D80934E
:100BB000A2039093A303A093A403B093A503BF91B2
:100BC000AF919F918F913F912F910F900FBE0F90FA
:100BD0001F90189526E8230F0296A11DB11DD2CFB4
:100BE0003FB7F8948091A2039091A303A091A4032E
:100BF000B091A50326B5A89B05C02F3F19F001961B
:100C0000A11DB11D3FBFBA2FA92F982F8827BC0166
:100C1000CD01620F711D811D911D42E0660F771F8E
:100C2000881F991F4A95D1F708958F929F92AF928E
:100C3000BF92CF92DF92EF92FF926B017C010E94F4
:100C4000F0054B015C01C114D104E104F104E9F0A9
:100C50000E947C070E94F005681979098A099B099E
:100C6000683E73408105910570F321E0C21AD108F6
:100C7000E108F10888EE880E83E0981EA11CB11CE3
:100C8000C114D104E104F10429F7FF90EF90DF9043
:100C9000CF90BF90AF909F908F900895789484B537
:100CA000826084BD84B5816084BD85B5826085BD68
:100CB00085B5816085BDEEE6F0E08081816080834E
:100CC000E1E8F0E010828081826080838081816031
:100CD0008083E0E8F0E0808181608083E1EBF0E0F8
:100CE000808184608083E0EBF0E08081816080839C
:100CF000E1E9F0E08081826080838081816080838F
:100D0000E0E9F0E0808181608083E1EAF0E08081C9
:100D100082608083808181608083E0EAF0E080816E
:100D200081608083E1E2F1E0808182608083808164
:100D300081608083E0E2F1E0808181608083EAE786
:100D4000F0E0808184608083808182608083808104
:100D5000816080838081806880831092C1000895C3
:100D60008150823108F05AC0E82FF0E08827E4541F
:100D7000F94F8F4F0C949F07DC06E006CE06D40691
:100D8000D8060E07E306E906ED06F306F706FB06AE
:100D9000010705070E0709070F0713078091800059
:100DA0008F77809380000895809180008F7DF9CFA8
:100DB00080918000877FF5CF84B58F7784BD0895BB
:100DC00084B58F7DFBCF8091B0008F778093B0008A
:100DD00008958091B0008F7DF9CF809190008F773A
:100DE000809390000895809190008F7DF9CF80913D
:100DF0009000877FF5CF8091A0008F778093A0002F
:100E000008958091A0008F7DF9CF8091A000877F09
:100E1000F5CF809120018F778093200108958091F4
:100E200020018F7DF9CF80912001877FF5CFCF936F
:100E3000DF9390E0FC01EA54FE4F249184509E4FD2
:100E4000FC0184918823C9F090E0880F991FFC0170
:100E5000EA58FD4FA591B491FC01E45AFD4FC591AC
:100E6000D49161110DC09FB7F8948C912095822385
:100E70008C938881282328839FBFDF91CF91089589
:100E8000623051F49FB7F8943C91822F8095832370
:100E90008C93E8812E2BEFCF8FB7F894EC912E2B0B
:100EA0002C938FBFEACFCF93DF93282F30E0F90147
:100EB000E059FE4F8491F901EA54FE4FD491F901B3
:100EC000E450FE4FC491CC23A1F081110E94B006E2
:100ED000EC2FF0E0EE0FFF1FEE5BFD4FA591B491FC
:100EE000EC91ED2381E090E009F480E0DF91CF9177
:100EF000089580E090E0FACF0895A1E21A2EAA1B8F
:100F0000BB1BFD010DC0AA1FBB1FEE1FFF1FA217B9
:100F1000B307E407F50720F0A21BB30BE40BF50BB6
:100F2000661F771F881F991F1A9469F7609570953F
:100F3000809590959B01AC01BD01CF010895EE0F06
:100F4000FF1F881F8BBF0790F691E02D19942F92F9
:100F50003F924F925F926F927F928F929F92AF9249
:100F6000BF92CF92DF92EF92FF920F931F93CF9396
:100F7000DF93CDB7DEB7CA1BDB0B0FB6F894DEBF2D
:100F80000FBECDBF19942A88398848885F846E8443
:100F90007D848C849B84AA84B984C884DF80EE809D
:100FA000FD800C811B81AA81B981CE0FD11D0FB6A6
:100FB000F894DEBF0FBECDBFED010895F894FFCFCA
:100FC0003702426F75746F6E20496E697469616C87
:100FD00069736572004241530047415543484500DB
:100FE00044524F4954004841555400000000004C01
:100FF00002300200000000BB02B102000000007FCE
:0E100000035A05F9025F03CB02E502D7020096
:00000001FF
